:020000040800F2
:10000000E80600208901000873120008910F00081B
:1000100071120008CF020008071500080000000058
:10002000000000000000000000000000771200083F
:10003000D1020008000000007512000879120008C3
:10004000A3010008A3010008A3010008A301000800
:10005000A3010008A3010008A3010008A3010008F0
:10006000A3010008A3010008A3010008A3010008E0
:10007000A3010008A3010008A3010008A3010008D0
:10008000A3010008A3010008A3010008A3010008C0
:10009000A3010008A3010008A3010008A3010008B0
:1000A000A3010008A3010008A3010008A3010008A0
:1000B000A3010008A3010008A3010008A301000890
:1000C000A3010008A3010008A3010008A301000880
:1000D000A3010008A3010008A3010008A301000870
:1000E000D3020008A3010008A301000800F002F8F1
:1000F00000F03AF80AA090E8000C82448344AAF188
:100100000107DA4501D100F02FF8AFF2090EBAE885
:100110000F0013F0010F18BFFB1A43F0010318473B
:10012000E418000004190000103A24BF78C878C110
:10013000FAD8520724BF30C830C144BF04680C60ED
:10014000704700000023002400250026103A28BF35
:1001500078C1FBD8520728BF30C148BF0B60704739
:100160001FB51FBD10B510BD00F077F81146FFF7A1
:10017000F7FF01F035FA00F095F803B4FFF7F2FF4E
:1001800003BC00F09DF8000009488047094800477B
:10019000FEE7FEE7FEE7FEE7FEE7FEE7FEE7FEE737
:1001A000FEE7FEE704480549054A064B7047000094
:1001B000CD120008ED000008E8000020E80600204D
:1001C000E8020020E802002010B5431C02E010F80D
:1001D000011B71B18107FAD14FF0013202C88C1AAC
:1001E0008C4314EAC211F9D0C01A0A0603D0C01E0B
:1001F00010BDC01A10BD0A0401D0801E10BD090236
:10020000FCD0401E10BD4FF0000200B513469446CE
:100210009646203922BFA0E80C50A0E80C50B1F15E
:100220002001BFF4F7AF090728BFA0E80C5048BF72
:100230000CC05DF804EB890028BF40F8042B08BF10
:10024000704748BF20F8022B11F0804F18BF00F80C
:10025000012B7047704770477047754600F02CF8C7
:10026000AE4605006946534620F00700854618B0A3
:1002700020B5FFF797FFBDE820404FF000064FF094
:1002800000074FF000084FF0000B21F00701AC46CB
:10029000ACE8C009ACE8C009ACE8C009ACE8C009EA
:1002A0008D46704710B50446AFF300802046BDE888
:1002B0001040FFF762BF0000004870478800002030
:1002C00001491820ABBEFEE7260002007047FEE79A
:1002D000704710B54FF4806000F040F8BDE8104062
:1002E0004FF4006000F03AB870B5044600F03CF9F5
:1002F0000546601C02D004480078044400F034F93C
:10030000401BA042FAD370BD3000002010B5124946
:1003100041F21004B0F5806FD1E901230FD0B0F5A0
:10032000006F0BD1002B09D1002A07D10868C82221
:10033000401C0860504390FBF4F0C86010BD002BD7
:10034000FCD1002AFAD10869C822401C0861504338
:1003500090FBF4F0486110BD00000020044910B586
:100360000A68024202D00860FFF7D0FF10BD00000B
:10037000140401402DE9F84FDFF8B8910024A9F1E9
:10038000040B23460F2709F1040AABF1040EC9E060
:100390000125A5402A40AA427DD1674ED1F804C06C
:1003A000ACEB0608B44532D014DCBCF1030F3AD0F4
:1003B00009DCBCF1000F2AD0BCF1010F1CD0BCF14C
:1003C000020F31D11DE0BCF1110F17D0BCF1120F9B
:1003D0002AD119E0B8F5881F19D006DCB8F5803F9E
:1003E00015D0B8F5801F1FD111E0B8F5001F0ED051
:1003F000B8F5041F18D10AE0CB6815E0CB681B1DC7
:1004000012E0CB6808330FE0CB680C330CE08B684C
:100410002BB1012B4FF0080303D0456104E0042306
:1004200002E0056100E00023FF2A01D8064601E052
:1004300000F104064FEA840501D9A5F12005D6F89C
:10044000008007FA05FC28EA0C0803FA05F548EADB
:100450000508C6F800804D68ED0062D5374DAE69DD
:1004600046F00106AE61AD6924F0030605F0010512
:100470000095334D06EB050CDCF80850A607360F47
:1004800007FA06F825EA0805DFF8B880404503D1E9
:100490004FF0000817E044E0DFF8AC80404502D19F
:1004A0004FF001080FE0DFF8A480404502D14FF083
:1004B000020808E0DFF89880404502D14FF00308B9
:1004C00001E04FF0040808FA06F848EA0508CCF8FD
:1004D00008804D68D9F80060ED024D4601D51643FD
:1004E00000E096432E604D68DAF80060AD02554694
:1004F00001D5164300E096432E604D68DBF800609E
:10050000AD035D4601D5164300E096432E604D686D
:10051000DEF80060ED03754601D5164300E0964312
:100520002E60641C0D682A46E5407FF431AFBDE8BB
:10053000F88F000008040140000011100010024074
:100540000000014000080140000C01400010014083
:10055000001401408068084000D0012070470AB1B3
:10056000016170470904FBE701488068704700009B
:100570003000002002488168027811448160704791
:1005800030000020074810B5016841F010010160FB
:10059000032000F075F80F2000F006F800F024F8B2
:1005A000002010BD0020024070B50D4D04464FF4F0
:1005B0007A712878B1FBF0F00A490968B1FBF0F0D4
:1005C00000F0BCFA48B9102C07D200222146501E78
:1005D00000F036F800206C6070BD012070BD000096
:1005E000300000203C0000200C4808B5816941F033
:1005F00001018161816901F001010091C16941F04E
:100600008051C161C06900F0805000900448416889
:1006100021F0E06141F00071416008BD001002402E
:1006200000000140002809DB00F01F020121914079
:100630004009800000F1E020C0F800117047000080
:10064000F0B40E4B1B680C46C3F30223C3F107053D
:10065000042D00D90425191D072901D2002300E02B
:10066000DB1E012606FA05F1491E214099409E40F5
:10067000761E16403143F0BC00F046BF0CED00E0A2
:10068000064900F0070208684FF6FF03184040EAE9
:100690000220034A10430860704700000CED00E0A0
:1006A0000000FA052DE9F0470F46050061D0434EE2
:1006B000306800F00700B84209D2306820F0070027
:1006C00038433060306800F00700B84251D12868E4
:1006D0003B4C810712D5400703D5606840F4E060C9
:1006E00060602878000703D5606840F4605060605F
:1006F0006068A96820F0F000084360602878C007AF
:1007000028D06868012810D02168022810D08907F5
:1007100000292EDA616821F0030101436160FFF7CF
:1007200023FF804641F288390DE021688903EFE715
:100730008901EDE7FFF718FFA0EB0801494502D951
:100740000320BDE8F0876068696800F00C00B0EB3A
:10075000810FEFD1306800F00700B8420BD9306844
:1007600020F0070038433060306800F00700B842DE
:1007700001D00120E5E72878400705D56068E968E1
:1007800020F4E060084360602878000706D56068C0
:10079000296920F4605040EAC100606000F018F858
:1007A0006168084AC1F30311515CC84006490860FA
:1007B00006480068FFF7F8FE0020C2E7002002406C
:1007C00000100240F21900083C0000203400002014
:1007D0000E4A51680E4801F00C03042B11D0082B6F
:1007E0000FD10C48C1F38343C903C05C0AD55168DB
:1007F000084AC1F34041921E515C054A5043B0FB88
:10080000F1F070470449484370470000001002406F
:1008100000127A00E219000800093D002DE9F84FA6
:10082000040070D02078C04DC00749D06868C0F37C
:100830008100012807D06868C0F38100022809D12F
:100840006868C00306D52868800339D56068002829
:10085000E7D035E06068B0F5803F0BD010B1B0F55F
:10086000A02F11D0286820F480302860286820F458
:10087000802002E0286840F480302860606890B1F1
:10088000FFF772FE06460AE0286840F480202860E0
:10089000F0E700BFFFF768FE801B642873D8286864
:1008A0008003F7D50CE0FFF75FFE064605E000BFCA
:1008B000FFF75AFE801B6428F0D828688003F7D41D
:1008C00020789A4E80074FF001094FF0000839D583
:1008D000686810F00C0F07D06868C0F38100022828
:1008E00009D16868C00306D42868800714D5206938
:1008F000012808D110E02069B0B1C6F80090FFF7D8
:1009000033FE074605E00AE1FFF72EFEC01B022872
:10091000C4D828688007F7D52868616920F0F800F6
:1009200040EAC10028600DE0C6F80080FFF71CFE19
:10093000074604E0FFF718FEC01B022823D82868EA
:100940008007F7D4207800072CD57948A169D9B160
:10095000C0F80090FFF708FE074604E0FFF704FE2A
:10096000C01B02280FD8686A8007F7D571484FF47A
:10097000FA510068B0FBF1F0009000BF0098411EF2
:100980000091FAD20EE080E0C0F80080FFF7ECFDA5
:10099000074604E0FFF7E8FDC01B022875D8686A27
:1009A0008007F7D42078400760D5E8690027C000A9
:1009B00008D4E86940F08050E861E869012700F058
:1009C000805000905C480168C90513D401688346D3
:1009D00041F480710160FFF7C7FD824606E000BF69
:1009E000FFF7C2FDA0EB0A0064284ED8DBF8000038
:1009F000C005F5D5E06801280AD008B1052813D054
:100A0000286A20F001002862286A20F0040002E031
:100A1000286A40F001002862E06841F2883B98B102
:100A2000FFF7A2FD82460BE0286A40F0040028622E
:100A3000EEE700BFFFF798FDA0EB0A0159455AD831
:100A4000286A8007F6D50CE0FFF78EFD824605E0A8
:100A5000FFF78AFDA0EB0A0159454CD8286A8007A8
:100A6000F6D41FB1E86920F08050E861E06988B3EE
:100A70006968C1F38101022944D00228C6F8608068
:100A800004D0FFF771FD044638E034E0FFF76CFD59
:100A9000074604E0FFF768FDC01B02282BD8286832
:100AA0008001F7D4206AB0F5803F05D16868A1685D
:100AB00020F4003008436860D4E9080108436968FD
:100AC00021F4741108436860C6F86090FFF74CFD8C
:100AD000044606E025E000BFFFF746FD001B0228A4
:100AE00009D828688001F7D51BE000BFFFF73CFD5F
:100AF000001B022802D90320BDE8F88F2868800176
:100B0000F4D40EE00128F7D06868226A00F480313E
:100B1000914204D1616A00F47010884201D0012032
:100B2000EAE70020E8E7000000100240000042422F
:100B3000800442423C0000200070004010B5401E7E
:100B4000B0F1807F01D3012010BD4FF0E02460613F
:100B50000F21601700F0D8FC0020A0610720206161
:100B6000002010BD10B590F83C20012A22D00122AF
:100B700080F83C20CA688C6822F4407222434C689A
:100B800022F4806222430C6822F4006222430C6942
:100B900022F4805222434C6922F400522243C96954
:100BA000002322F480420A4301684A6480F83C3002
:100BB000002010BD022010BD70B590F83C20012A25
:100BC00026D0012480F83C40022280F83D200368B2
:100BD0005A689D6822F070060A6832435A600D4BCD
:100BE00002689A4208D0B2F1804F05D00A4B9A426F
:100BF00002D00A4B9A4204D1496825F08003194378
:100C0000916080F83D40002180F83C10084670BD9E
:100C1000022070BD002C014000040040000800408C
:100C200010B5040003D094F83D0010B107E0012096
:100C300010BD002084F83C00204600F01FF8022080
:100C400084F83D00211D206800F042FB012084F85B
:100C5000460084F83E0084F83F0084F8400084F8A1
:100C6000410084F8420084F8430084F8440084F88A
:100C7000450084F83D00002010BD000008B5006864
:100C80000649884208D10648816941F400618161C2
:100C9000806900F40060009008BD0000002C014055
:100CA0000010024070B5044690F83C000025012871
:100CB00017D0012684F83C60022084F83D002068AB
:100CC000826822F0770222F47F428260086850280E
:100CD00038D00DDC20284FD005DC90B3102811D17E
:100CE0004AE0022070BD302846D040280AD13BE0BF
:100CF00060282FD070280DD0B0F5805F03D0B0F5FC
:100D0000005F12D0012584F83D60002084F83C008B
:100D1000284670BDCB68D1E90121206800F01BFB9B
:100D20002068816841F0770109E0CB68D1E90121B1
:100D3000206800F010FB2068816841F480418160E8
:100D4000E1E719E0CA684968206800F0B9FB502162
:100D5000206806E0CA684968206800F0C2FB60218C
:100D6000206800F002FBCEE7CA684968206800F0FE
:100D7000A7FB40212068F4E7226801461046F0E70F
:100D800000B585B0002100910191029103910068A6
:100D90000B49884212D10B48816941F004018161FD
:100DA0008069694600F0040004904FF48070009060
:100DB0000220019003900448FFF7DCFA05B000BD63
:100DC000002C0140001002400008014070B50446AC
:100DD00090F83C0000260D4601280FD0012084F831
:100DE0003C006AB1042A1DD0082A2FD00C2A3FD01B
:100DF0000126002084F83C00304670BD022070BD02
:100E0000206800F0BBFA2068816941F00801816127
:100E10002068816921F004018161206881692A6963
:100E2000114311E0206800F0D1FA2068816941F493
:100E3000006181612068816921F48061816120689D
:100E400081692A6941EA02218161D2E7206800F0C4
:100E5000E9FA2068C16941F00801C1612068C169EF
:100E600021F00401C1612068C1692A69114311E0C0
:100E7000206800F003FB2068C16941F40061C16192
:100E80002068C16921F48061C1612068C1692A6953
:100E900041EA0221C161ACE710B5040003D094F827
:100EA0003D0010B107E0012010BD002084F83C0097
:100EB000204600F01EF8022084F83D00211D206825
:100EC00000F006FA012084F8460084F83E0084F819
:100ED0003F0084F8400084F8410084F8420084F820
:100EE000430084F8440084F8450084F83D00002065
:100EF00010BD704710B50446022249B104290ED036
:100F0000082913D094F84100012816D0012010BD03
:100F100094F83E000128F9D184F83E200FE094F8BF
:100F20003F000128F2D184F83F2008E094F8400007
:100F30000128EBD184F8402001E084F8412001220F
:100F4000206800F0FBF90F492068884203D1426C09
:100F500042F4004242642068884208D0B0F1804FD9
:100F600005D00949884202D00849884204D18168E5
:100F700001F00701062903D0016841F00101016079
:100F8000002010BD002C014000040040000800407B
:100F9000FEE710B500F014F8332000F0F7FA322025
:100FA00000F0F4FA282000F0F1FA012000F0EEFA47
:100FB0000C2000F0EBFABDE81040062000F0E6BA85
:100FC0002DE9F04385B0334800240294816941F053
:100FD00004018161816901F004010491816941F09A
:100FE00008018161816901F008010491816941F082
:100FF000100181618069032600F01000CDE90360D3
:101000004FF480580125DFF89090CDE900856946BE
:101010004846FFF7AFF9A803CDE90005CDE9024640
:1010200069464846FFF7A6F96F0300970396CDE996
:10103000015469464846FFF79DF900223946484663
:10104000FFF78DFAE802CDE90005144FCDE902461D
:1010500069463846FFF78EF9CDF800800396CDE952
:10106000015469463846FFF785F9E803CDE90005E4
:10107000CDE9024669463846FFF77CF90820CDE9FC
:101080000005CDE9024669464846FFF773F905B009
:10109000BDE8F08300100240000C01400008014050
:1010A00031B14030C0B240F0800000BF00F06EBAF5
:1010B00040F08000FAE7C0B200F07EBA70B5054695
:1010C000002404E0285D00F077FA641CE4B22846AE
:1010D000FFF77AF8A042F5D870BD00002DE9F04383
:1010E00085B000242B4800940194029403948169F4
:1010F00041F008018161816901F008010491816971
:1011000041F0040181618069DFF88C9000F00400F7
:101110004FF2F8060490002231464846FFF71FFAC6
:10112000DFF878804FF41847002239464046FFF731
:1011300016FA4FF44060009019480125CDE90105E9
:1011400069464846FFF716F9CDE900650226CDE964
:10115000024669464846FFF70DF900970396CDE928
:10116000015469464046FFF705F94FF44070CDE958
:101170000004694648460294FFF7FCF80022114635
:101180002820FFF75DFA2820FFF74CFA05B0BDE8EC
:10119000F083000000100240000C014000080140F4
:1011A0000000111010B596B000240F941094119403
:1011B000129413941C2108A81494FFF724F82021FA
:1011C0006846FFF720F82948274901604FF4487125
:1011D000C0E901146321C0E9031444618461FFF78D
:1011E0001FFD08B172B6FEE74FF480500F900FA9B3
:1011F0001E48FFF757FD08B172B6FEE71B48FFF720
:101200004BFE08B172B6FEE7139413A91748149465
:10121000FFF7D2FC08B172B6FEE7602008901920F3
:10122000CDE909040B940C940D94002208A90F48F1
:101230000E94FFF7CBFD08B172B6FEE700944FF4B1
:101240000050CDE904400294019403946946074894
:101250000794FFF787FC08B172B6FEE70348FFF773
:101260008FFD16B010BD0000002C01404000002092
:10127000FEE7FEE770477047FFF77CB910B590B006
:1012800028216846FEF7BFFF14210AA8FEF7BBFF1E
:101290000220009001200490102000240590079463
:1012A0006846FFF7BBFA08B172B6FEE70F20CDE93A
:1012B0000A040C940D9400210AA80E94FFF7F2F989
:1012C000002801D072B6FEE710B010BD70470000D4
:1012D000F0B50268164B174C174D4FF080479842F7
:1012E00005D0B84203D0A04201D0A84203D122F0D9
:1012F00070064A683243984205D0B84203D0A042F3
:1013000001D0A84203D122F44074CA6822434C6938
:1013100022F08002224302608A68C2620A68826206
:10132000984201D10969016301214161F0BD0000CA
:10133000002C0140000400400008004010B501F0FE
:101340001F030121046A99408C430462016A9A4098
:101350001143016210BD10B5846842EA032224F4EF
:101360007F440A432243826010BD826822F07002EB
:101370000A4342F0070181607047000030B5036AFC
:10138000026A22F0010202624268846924F0730555
:101390000C682C4323F002058B682B430A4DA842AE
:1013A0000BD123F00805CB6822F440722B434D6922
:1013B00023F0040315438A692A4342608461496823
:1013C0004163036230BD0000002C014030B5026A69
:1013D000036A23F010030362436884690D6824F4F0
:1013E000E64444EA05248D6822F0200242EA051210
:1013F0000B4DA8420ED1CD6822F0800242EA0512C0
:101400004D6923F4406343EA85038D6922F040026D
:1014100043EA85034360846149688163026230BDA9
:10142000002C014030B5036A026A22F48072026225
:101430004268C46923F4007324F073050C682C43DC
:101440008D6843EA05230C4DA8420ED1CD6823F4E4
:10145000006343EA05234D6922F4405242EA051233
:101460008D6923F4806342EA05124260C4614968D1
:10147000C163036230BD0000002C014030B5046A36
:10148000026A22F4805202624268C3690D6823F442
:10149000E64343EA05238D6824F4005444EA053406
:1014A000064DA84204D14D6922F4804242EA8512D9
:1014B0004260C36149680164046230BD002C014090
:1014C00010B5036A046A24F001040462846924F0FC
:1014D000F00444EA021423F00A020A43846102621F
:1014E00010BD10B5036A046A24F010040462846914
:1014F00023F0A00324F4704444EA023243EA0111C9
:101500008261016210BDFEE70907090E002804DBB5
:1015100000F1E02080F80014704700F00F0000F1A7
:10152000E02080F8141D70472DE9F041154D0F465D
:101530008046002405F108060EE000BF28FA04F0FA
:10154000C00735F8141056F8240018D05FF00102D7
:10155000FFF705F8641CE4B2BC42EFD301220A4D48
:10156000940321462846FEF7FAFF0120FEF7BCFE51
:1015700021462846BDE8F0410022FEF7F0BF0022D8
:10158000E6E7000018000020000C014010B50446FA
:1015900000224FF480510748FEF7E1FF20090421A3
:1015A000FFF7C2FF04F00F00BDE810400421FFF771
:1015B000BBBF0000000C014010B50446012211031E
:1015C0000648FEF7CCFF20090421FFF7ADFF04F029
:1015D0000F00BDE810400421FFF7A6BF000C01403A
:1015E000FEF7D0FFFFF74AFEFFF778FDFFF7DAFDC1
:1015F0000021E748FFF77EFCFFF7CBFC00210846FF
:10160000FFF74EFDE3A0FFF759FD01210020FFF792
:1016100047FDE5A0FFF752FDDFF8A08300228021FF
:1016200044464046FEF79BFF002240212046FEF73D
:1016300096FF002210212046FEF791FF0022202174
:101640002046FEF78CFF4FF4FA60FEF74DFEDC4CAF
:101650004FF000090A25C4F8049040F6FC0A6427FC
:101660004FF0010B4FF47A76C4F808902169514588
:1016700002DC2168514503DDC4F81090C4E9009BE9
:1016800000210846FFF70CFDCEA0FFF717FD2069EB
:1016900090FBF6F090FBF5F105FB11003030FFF701
:1016A0000AFD206990FBF7F090FBF5F105FB1100B6
:1016B0003030FFF700FD206990FBF5F090FBF5F16D
:1016C00005FB11003030FFF7F6FC206990FBF5F1C7
:1016D00005FB11003030FFF7EEFCBCA0FFF7EEFC7D
:1016E00001210020FFF7DCFCBBA0FFF7E7FC20682E
:1016F00090FBF6F090FBF5F105FB11003030FFF7A1
:10170000DAFC206890FBF7F090FBF5F105FB110087
:101710003030FFF7D0FC206890FBF5F090FBF5F13E
:1017200005FB11003030FFF7C6FC206890FBF5F197
:1017300005FB11003030FFF7BEFCA4A0FFF7BEFC94
:101740006068E0B101287DD002288FD1002280217D
:101750004046FEF704FF002240214046FEF7FFFE10
:10176000002210214046FEF7FAFE002220214046CA
:10177000FEF7F5FE864963200968486376E74FF473
:1017800080714046FEF7E6FE58B1012280214046B6
:10179000FEF7E5FE002240214046FEF7E0FE012272
:1017A000DFE77B49C4F808B06320096848634FF459
:1017B0009670FEF799FD76485021006841634FF41A
:1017C0009670FEF791FD72483C21006841634FF42A
:1017D0009670FEF789FD6E482821006841634FF43A
:1017E0009670FEF781FD6A481E21006841634FF440
:1017F0009670FEF779FD012280214046FEF7AFFE8C
:10180000002240214046FEF7AAFE00221021404659
:10181000FEF7A5FE012220214046FEF7A0FE30463D
:10182000FEF762FD012280214046FEF798FE00226D
:1018300040214046FEF793FE012210214046FEF76C
:101840008EFE00E085E0002220214046FEF787FE64
:101850004FF47A60FEF748FD002280214046FEF7F3
:101860007EFE012240214046FEF779FE0122102132
:101870004046FEF774FE002220214046FEF76FFE30
:101880003046FEF731FD012280214046FEF767FE1B
:10189000002240214046FEF762FE01221021404610
:1018A000FEF75DFE002220214046FEF758FE4FF471
:1018B0007A60FEF719FD002280214046FEF74FFEB8
:1018C000012240214046FEF74AFE012210214046F7
:1018D000FEF745FE002220214046FEF740FE30463E
:1018E000FEF702FD012280214046FEF738FE00226D
:1018F00040214046FEF733FE012210214046FEF70C
:101900002EFE002220214046FEF729FE40F2DC5048
:10191000FEF7EAFC012280214046FEF720FE00226D
:1019200040214046FEF71BFE002210214046FEF7F4
:1019300016FE012220214046FEF711FE14496320C5
:10194000096848634FF4C870FEF7CEFCC4F80890ED
:101950008CE602206060012280214046FEF7FFFDF8
:10196000002240214046FEF7FAFD002210214046A9
:10197000FEF7F5FD012220214046FEF7F0FD044967
:101980006320096848634FF4FA70FEF7ADFC6DE61A
:101990004000002020202020424154204441552076
:1019A0002020202000000000202020204348554116
:1019B0004E2042492020202000000000000C014061
:1019C00000000020545241493A00000078756E67CB
:1019D0002020202020000000504841493A0000000B
:1019E000010202030405060708090A0B0C0D0E0F7D
:1019F00010100000000000000000010203040607B0
:101A000008090000241A000800000020400000001F
:101A100028010008641A000840000020A806000001
:101A20004401000800000000000000000000000069
:101A3000000000000000000000000000000800108E
:101A40000080080000080140000801400008014033
:101A5000000C014001000000100000000000000028
:041A60000024F4006A
:04000005080000ED02
:00000001FF
