:020000040800F2
:10000000380700208901000863100008750D0008FA
:1000100061100008CF020008A311000800000000D2
:100020000000000000000000000000006710000851
:10003000D1020008000000006510000869100008E7
:10004000A3010008A3010008A3010008A301000800
:10005000A3010008A3010008A3010008A3010008F0
:10006000A3010008A3010008A3010008A3010008E0
:10007000A3010008A3010008A3010008A3010008D0
:10008000A3010008A3010008A3010008A3010008C0
:10009000A3010008A3010008A3010008A3010008B0
:1000A000A3010008A3010008A3010008A3010008A0
:1000B000A3010008A3010008A3010008A301000890
:1000C000A3010008A3010008A3010008A301000880
:1000D000A3010008A3010008A3010008A301000870
:1000E000D3020008A3010008A301000800F002F8F1
:1000F00000F03AF80AA090E8000C82448344AAF188
:100100000107DA4501D100F02FF8AFF2090EBAE885
:100110000F0013F0010F18BFFB1A43F0010318473B
:100120007819000098190000103A24BF78C878C1E7
:10013000FAD8520724BF30C830C144BF04680C60ED
:10014000704700000023002400250026103A28BF35
:1001500078C1FBD8520728BF30C148BF0B60704739
:100160001FB51FBD10B510BD00F077F81146FFF7A1
:10017000F7FF01F0D7F800F095F803B4FFF7F2FFAE
:1001800003BC00F09DF8000009488047094800477B
:10019000FEE7FEE7FEE7FEE7FEE7FEE7FEE7FEE737
:1001A000FEE7FEE704480549054A064B7047000094
:1001B000CB100008ED0000083801002038070020AF
:1001C000380300203803002010B5431C02E010F86B
:1001D000011B71B18107FAD14FF0013202C88C1AAC
:1001E0008C4314EAC211F9D0C01A0A0603D0C01E0B
:1001F00010BDC01A10BD0A0401D0801E10BD090236
:10020000FCD0401E10BD4FF0000200B513469446CE
:100210009646203922BFA0E80C50A0E80C50B1F15E
:100220002001BFF4F7AF090728BFA0E80C5048BF72
:100230000CC05DF804EB890028BF40F8042B08BF10
:10024000704748BF20F8022B11F0804F18BF00F80C
:10025000012B7047704770477047754600F02CF8C7
:10026000AE4605006946534620F00700854618B0A3
:1002700020B5FFF797FFBDE820404FF000064FF094
:1002800000074FF000084FF0000B21F00701AC46CB
:10029000ACE8C009ACE8C009ACE8C009ACE8C009EA
:1002A0008D46704710B50446AFF300802046BDE888
:1002B0001040FFF762BF000000487047D4000020E4
:1002C00001491820ABBEFEE7260002007047FEE79A
:1002D00070474FF4806000F033B8000070B50446FA
:1002E00000F034F90546601C02D00448007804444C
:1002F00000F02CF9401BA042FAD370BD340000205E
:10030000B0F5806F18D10D484169002914D10169F9
:10031000002911D18168C822491C4A4341F21003C7
:1003200092FBF3F2826140F6FC028160914203DDB0
:100330000121016100218160704700000000002060
:10034000044910B50A68024202D00860FFF7D8FFDE
:1003500010BD0000140401402DE9F84FDFF8B891FA
:100360000024A9F1040B23460F2709F1040AABF17D
:10037000040EC9E00125A5402A40AA427DD1674E5E
:10038000D1F804C0ACEB0608B44532D014DCBCF1A3
:10039000030F3AD009DCBCF1000F2AD0BCF1010FE9
:1003A0001CD0BCF1020F31D11DE0BCF1110F17D0F0
:1003B000BCF1120F2AD119E0B8F5881F19D006DC5C
:1003C000B8F5803F15D0B8F5801F1FD111E0B8F502
:1003D000001F0ED0B8F5041F18D10AE0CB6815E055
:1003E000CB681B1D12E0CB6808330FE0CB680C33E1
:1003F0000CE08B682BB1012B4FF0080303D0456153
:1004000004E0042302E0056100E00023FF2A01D894
:10041000064601E000F104064FEA840501D9A5F182
:100420002005D6F8008007FA05FC28EA0C0803FA34
:1004300005F548EA0508C6F800804D68ED0062D56C
:10044000374DAE6946F00106AE61AD6924F0030692
:1004500005F001050095334D06EB050CDCF808505E
:10046000A607360F07FA06F825EA0805DFF8B88070
:10047000404503D14FF0000817E044E0DFF8AC80BE
:10048000404502D14FF001080FE0DFF8A48040455D
:1004900002D14FF0020808E0DFF89880404502D111
:1004A0004FF0030801E04FF0040808FA06F848EAA4
:1004B0000508CCF808804D68D9F80060ED024D467B
:1004C00001D5164300E096432E604D68DAF80060CF
:1004D000AD02554601D5164300E096432E604D68A7
:1004E000DBF80060AD035D4601D5164300E096439E
:1004F0002E604D68DEF80060ED03754601D51643A9
:1005000000E096432E60641C0D682A46E5407FF4A7
:1005100031AFBDE8F88F0000080401400000111061
:10052000001002400000014000080140000C0140A2
:1005300000100140001401408068084000D00120F4
:1005400070470AB1016170470904FBE70148806800
:10055000704700003400002002488168027811448E
:100560008160704734000020074810B5016841F0F1
:1005700010010160032000F075F80F2000F006F86C
:1005800000F024F8002010BD0020024070B50D4D91
:1005900004464FF47A712878B1FBF0F00A490968F3
:1005A000B1FBF0F000F0BCFA48B9102C07D20022E1
:1005B0002146501E00F036F800206C6070BD01200E
:1005C00070BD000034000020400000200C4808B539
:1005D000816941F001018161816901F001010091AE
:1005E000C16941F08051C161C06900F08050009044
:1005F0000448416821F0E06141F00071416008BDAC
:100600000010024000000140002809DB00F01F023A
:10061000012191404009800000F1E020C0F8001164
:1006200070470000F0B40E4B1B680C46C3F3022366
:10063000C3F10705042D00D90425191D072901D28E
:10064000002300E0DB1E012606FA05F1491E2140C9
:1006500099409E40761E16403143F0BC00F0A2BD8A
:100660000CED00E0064900F0070208684FF6FF03B2
:10067000184040EA0220034A104308607047000017
:100680000CED00E00000FA052DE9F0470F460500EB
:1006900061D0434E306800F00700B84209D230689C
:1006A00020F0070038433060306800F00700B8429F
:1006B00051D128683B4C810712D5400703D56068AB
:1006C00040F4E06060602878000703D5606840F47B
:1006D000605060606068A96820F0F00008436060C6
:1006E0002878C00728D06868012810D0216802281F
:1006F00010D0890700292EDA616821F00301014337
:100700006160FFF723FF804641F288390DE02168E0
:100710008903EFE78901EDE7FFF718FFA0EB080178
:10072000494502D90320BDE8F0876068696800F098
:100730000C00B0EB810FEFD1306800F00700B84239
:100740000BD9306820F0070038433060306800F083
:100750000700B84201D00120E5E72878400705D519
:100760006068E96820F4E06008436060287800076A
:1007700006D56068296920F4605040EAC1006060D5
:1007800000F018F86168084AC1F30311515CC840D1
:100790000649086006480068FFF7F8FE0020C2E737
:1007A0000020024000100240861A0008400000208D
:1007B000380000200E4A51680E4801F00C03042B4B
:1007C00011D0082B0FD10C48C1F38343C903C05C7F
:1007D0000AD55168084AC1F34041921E515C054A4E
:1007E0005043B0FBF1F070470449484370470000A4
:1007F0000010024000127A00761A000800093D003D
:100800002DE9F84F040070D02078C04DC00749D0C2
:100810006868C0F38100012807D06868C0F38100D0
:10082000022809D16868C00306D52868800339D535
:1008300060680028E7D035E06068B0F5803F0BD0F5
:1008400010B1B0F5A02F11D0286820F480302860B6
:10085000286820F4802002E0286840F48030286076
:10086000606890B1FFF772FE06460AE0286840F41F
:1008700080202860F0E700BFFFF768FE801B642837
:1008800073D828688003F7D50CE0FFF75FFE0646B3
:1008900005E000BFFFF75AFE801B6428F0D82868E7
:1008A0008003F7D420789A4E80074FF001094FF06B
:1008B000000839D5686810F00C0F07D06868C0F3DD
:1008C0008100022809D16868C00306D4286880071F
:1008D00014D52069012808D110E02069B0B1C6F80C
:1008E0000090FFF733FE074605E00AE1FFF72EFE12
:1008F000C01B0228C4D828688007F7D5286861691A
:1009000020F0F80040EAC10028600DE0C6F8008041
:10091000FFF71CFE074604E0FFF718FEC01B022885
:1009200023D828688007F7D4207800072CD5794889
:10093000A169D9B1C0F80090FFF708FE074604E0AE
:10094000FFF704FEC01B02280FD8686A8007F7D59E
:1009500071484FF4FA510068B0FBF1F0009000BF0D
:100960000098411E0091FAD20EE080E0C0F80080AD
:10097000FFF7ECFD074604E0FFF7E8FDC01B022887
:1009800075D8686A8007F7D42078400760D5E86991
:100990000027C00008D4E86940F08050E861E869A9
:1009A000012700F0805000905C480168C90513D40D
:1009B0000168834641F480710160FFF7C7FD8246FC
:1009C00006E000BFFFF7C2FDA0EB0A0064284ED886
:1009D000DBF80000C005F5D5E06801280AD008B1B1
:1009E000052813D0286A20F001002862286A20F028
:1009F000040002E0286A40F001002862E06841F249
:100A0000883B98B1FFF7A2FD82460BE0286A40F0D0
:100A100004002862EEE700BFFFF798FDA0EB0A0193
:100A200059455AD8286A8007F6D50CE0FFF78EFDA5
:100A3000824605E0FFF78AFDA0EB0A0159454CD834
:100A4000286A8007F6D41FB1E86920F08050E86179
:100A5000E06988B36968C1F38101022944D00228A2
:100A6000C6F8608004D0FFF771FD044638E034E03A
:100A7000FFF76CFD074604E0FFF768FDC01B022886
:100A80002BD828688001F7D4206AB0F5803F05D1C3
:100A90006868A16820F4003008436860D4E9080160
:100AA0000843696821F4741108436860C6F86090CF
:100AB000FFF74CFD044606E025E000BFFFF746FDCA
:100AC000001B022809D828688001F7D51BE000BF69
:100AD000FFF73CFD001B022802D90320BDE8F88F78
:100AE00028688001F4D40EE00128F7D06868226AF3
:100AF00000F48031914204D1616A00F470108842A0
:100B000001D00120EAE70020E8E7000000100240E1
:100B10000000424280044242400000200070004039
:100B200010B5401EB0F1807F01D3012010BD4FF001
:100B3000E02460610F21601700F034FB0020A06109
:100B400007202061002010BD70B590F83C20012ADC
:100B500026D0012480F83C40022280F83D20036822
:100B60005A689D6822F070060A6832435A600D4B3D
:100B700002689A4208D0B2F1804F05D00A4B9A42DF
:100B800002D00A4B9A4204D1496825F080031943E8
:100B9000916080F83D40002180F83C10084670BD0F
:100BA000022070BD002C01400004004000080040FD
:100BB00010B5040003D094F83D0010B107E0012007
:100BC00010BD002084F83C00204600F01FF80220F1
:100BD00084F83D00211D206800F078FA012084F897
:100BE000460084F83E0084F83F0084F8400084F812
:100BF000410084F8420084F8430084F8440084F8FB
:100C0000450084F83D00002010BD000008B50168D3
:100C10000B48B1F1804F0BD00A4A914207D1C1690C
:100C200041F00201C161C06900F00200009008BDFE
:100C3000C16941F00101C161C06900F00100F5E73F
:100C4000001002400004004090F83D10012901D03E
:100C500001207047022180F83D1000680B4988424E
:100C600008D0B0F1804F05D00949884202D0094927
:100C7000884204D1816801F00701062903D0016888
:100C800041F001010160002070470000002C01408C
:100C9000000400400008004070B5044690F83C0095
:100CA0000025012817D0012684F83C60022084F832
:100CB0003D002068826822F0770222F47F42826041
:100CC0000868502838D00DDC20284FD005DC90B3C0
:100CD000102811D14AE0022070BD302846D04028AB
:100CE0000AD13BE060282FD070280DD0B0F5805F8E
:100CF00003D0B0F5005F12D0012584F83D600020DC
:100D000084F83C00284670BDCB68D1E901212068F9
:100D100000F012FA2068816841F0770109E0CB68A1
:100D2000D1E90121206800F007FA2068816841F4C8
:100D300080418160E1E719E0CA684968206800F0F5
:100D40000DFA5021206806E0CA684968206800F062
:100D500016FA6021206800F0F9F9CEE7CA68496800
:100D6000206800F0FBF940212068F4E72268014682
:100D70001046F0E7FEE710B500F014F8332000F05D
:100D8000A7FA322000F0A4FA282000F0A1FA0120EE
:100D900000F09EFA0C2000F09BFABDE810400620FF
:100DA00000F096BA2DE9F04385B033480024029450
:100DB000816941F004018161816901F004010491BC
:100DC000816941F008018161816901F008010491A4
:100DD000816941F0100181618069032600F01000F3
:100DE000CDE903604FF480580125DFF89090CDE9FC
:100DF000008569464846FFF7AFFAA803CDE900052C
:100E0000CDE9024669464846FFF7A6FA6F03009708
:100E10000396CDE9015469464846FFF79DFA002242
:100E200039464846FFF78DFBE802CDE90005144F2F
:100E3000CDE9024669463846FFF78EFACDF80080C4
:100E40000396CDE9015469463846FFF785FAE80371
:100E5000CDE90005CDE9024669463846FFF77CFA40
:100E60000820CDE90005CDE9024669464846FFF76E
:100E700073FA05B0BDE8F08300100240000C014099
:100E80000008014031B14030C0B240F0800000BFE6
:100E900000F01EBA40F08000FAE7C0B200F02EBAAF
:100EA00070B50546002404E0285D00F027FA641CB4
:100EB000E4B22846FFF788F9A042F5D870BD0000DB
:100EC0002DE9F04385B000242E480094019402944B
:100ED0000394816941F020018161816901F0200161
:100EE0000491816941F008018161816901F0080183
:100EF0000491816941F0040181618069DFF8889083
:100F000000F0040047F2F8250490002229464846E4
:100F1000FFF717FBDFF874804FF4184700223946BB
:100F20004046FFF70EFB4FF4806000901848CDE973
:100F3000010469464846FFF70FFA0095022601258D
:100F40000396CDE9015469464846FFF705FA009734
:100F50000396CDE9015469464046FFF7FDF92802A2
:100F60008DE8310069464846FFF7F6F90022114640
:100F70002820FFF757FB2820FFF746FB05B0BDE808
:100F8000F083000000100240000C01400008014006
:100F90000000111010B586B000241648009401948A
:100FA0000294039404944FF080410594016017214A
:100FB000C0E901144FF6FF71C0E903148461FFF723
:100FC000F7FD08B172B6FEE74FF480500090694615
:100FD0000848FFF761FE08B172B6FEE7049404A961
:100FE00004480594FFF7B0FD002801D072B6FEE773
:100FF00006B010BD4400002010B586B0002417488C
:10100000009401940294039404941349059401609C
:101010004721C0E901144FF6FF71C0E90314846150
:10102000FFF7C6FD08B172B6FEE74FF4805000909E
:1010300069460A48FFF730FE08B172B6FEE704942D
:1010400004A906480594FFF77FFD002801D072B679
:10105000FEE706B010BD0000000400408C00002038
:10106000FEE7FEE770477047FFF776BA30B58FB0FE
:1010700028216846FFF7C7F814210AA8FFF7C3F82C
:1010800001210804CDE900100024029402250491F6
:10109000CDE907504FF4E01009906846FFF7B0FB28
:1010A00008B172B6FEE70F20CDE90A054FF4806063
:1010B000CDE90C4002210AA80E94FFF7E5FA0028BA
:1010C00001D072B6FEE70FB030BD7047F0B50268D0
:1010D000164B174C174D4FF08047984205D0B84239
:1010E00003D0A04201D0A84203D122F070064A6882
:1010F0003243984205D0B84203D0A04201D0A84262
:1011000003D122F44074CA6822434C6922F0800261
:10111000224302608A68C2620A688262984201D1F0
:101120000969016301214161F0BD0000002C01400B
:10113000000400400008004010B5846842EA032221
:1011400024F47F440A432243826010BD826822F067
:1011500070020A4342F007018160704710B5036ACC
:10116000046A24F001040462846924F0F00444EA6F
:10117000021423F00A020A438461026210BD10B512
:10118000036A046A24F010040462846923F0A00353
:1011900024F4704444EA023243EA0111826101629C
:1011A00010BDFEE70907090E002804DB00F1E0206E
:1011B00080F80014704700F00F0000F1E02080F884
:1011C000141D7047034900220A600A688242FCD35A
:1011D000704700002404004070B51F4C4FF40075A8
:1011E000002229462046FFF7ACF90220FFF7EAFF6C
:1011F000012229462046FFF7A4F90A20FFF7E2FF63
:10120000002229462046FFF79CF9A51529462046CD
:10121000FFF792F90028F9D0104E002030602946DF
:101220002046FFF789F90128F9D030680C4C20607E
:1012300000EBD070401000F0B2FB0A4A0A4B00F0FD
:1012400027FA00F07DFB4FF496716060884200DD64
:1012500061606068E06070BD000C014024040040E3
:1012600000000020B6F3FDD478693D402DE9F0413F
:10127000154D0F468046002405F108060EE000BF1C
:1012800028FA04F0C00735F8141056F8240018D0D6
:101290005FF00102FFF755F9641CE4B2BC42EFD3E2
:1012A00001220A4D940321462846FFF74AF90120FE
:1012B000FFF714F821462846BDE8F0410022FFF769
:1012C00040B90022E6E700001C000020000C0140AD
:1012D00010B5044600224FF480510748FFF731F95A
:1012E00020090421FFF7C2FF04F00F00BDE8104001
:1012F0000421FFF7BBBF0000000C014010B50446FD
:10130000012211030648FFF71CF920090421FFF709
:10131000ADFF04F00F00BDE810400421FFF7A6BFA9
:10132000000C0140FFF720F9FFF7A0FEFFF7C8FD12
:10133000FFF730FEFFF760FEBF48FFF785FCBE48B1
:101340004830FFF781FCFFF716FD00210846FFF744
:1013500099FDBAA0FFF7A4FD01210020FFF792FD3F
:10136000BBA0FFF79DFDBF4E002240213046FFF796
:10137000E8F8002280213046FFF7E3F80022202120
:101380003046FFF7DEF8002210213046FFF7D9F88B
:101390004FF4FA6A5046FEF7A1FFB34C4FF0000835
:1013A0006427C4F810800A254FF4FA79C4F8148031
:1013B00000210846FFF766FDACA0FFF771FDA069AC
:1013C00090FBF7F090FBF5F105FB11003030FFF7D3
:1013D00064FDA06990FBF5F090FBF5F105FB1100B1
:1013E0003030FFF75AFDA06990FBF5F105FB1100C5
:1013F0003030FFF752FD9FA0FFF752FD0121002082
:10140000FFF740FD9EA0FFF74BFD606890FBF7F0F3
:1014100090FBF5F105FB11003030FFF73EFD6068F1
:1014200090FBF5F090FBF5F105FB11003030FFF774
:1014300034FD616891FBF5F005FB10103030FFF7CB
:101440002CFD90A0FFF72CFD6420FEF747FF2069DC
:10145000C0B101287ED00228AAD100224021304606
:10146000FFF76FF8002280213046FFF76AF800226C
:1014700020213046FFF765F8002210213046FFF7A3
:1014800060F895E7FFF7A8FEE0680F287EDA0120F4
:101490000246606140213046FFF753F80022802168
:1014A0003046FFF74EF8002220213046FFF749F87A
:1014B000012210213046FFF744F84846FEF70EFFA0
:1014C000012240213046FFF73CF8002280213046BF
:1014D000FFF737F8012220213046FFF732F80022CB
:1014E00010213046FFF72DF840F2DC5B5846FEF73E
:1014F000F5FE002240213046FFF723F8012280212B
:101500003046FFF71EF8012220213046FFF719F878
:10151000002210213046FFF714F84FF41670FEF742
:10152000DDFE012240213046FFF70BF8002280212A
:101530003046FFF706F8012220213046FFF701F878
:10154000002210213046FEF7FCFF5046FEF7C6FE93
:10155000002200E056E040213046FEF7F2FF012273
:1015600080213046FEF7EDFF012220213046FEF7B4
:10157000E8FF002210213046FEF7E3FF4FF416701B
:10158000FEF7ACFE01224021304600E02EE0FEF7DF
:10159000D8FF002280213046FEF7D3FF0122202110
:1015A0003046FEF7CEFF002210213046FEF7C9FF7D
:1015B0005846FEF793FE012240213046FEF7C1FF58
:1015C000002280213046FEF7BCFF00222021304659
:1015D000FEF7B7FF012210213046FEF7B2FF4FF4AD
:1015E000C870FEF77BFEC4F81480E1E601224021BA
:1015F0003046FEF7A6FF002280213046FEF7A1FF0D
:10160000012235E702202061012240213046FEF709
:1016100098FF002280213046FEF793FF0022202110
:101620003046FEF78EFF012210213046FEF789FF7B
:101630004846FEF753FEBBE6440000202020202051
:101640004241542044415520202020200000000029
:1016500020202020434855414E2042492020202070
:1016600000000000000C014000000020444F414EEB
:101670003A000000636D2020202020202020000060
:101680004B433A00636D20202020202020202000A2
:101690002DE9C04130B4DFF8A0C23CEA111418BFF4
:1016A0003CEA131400F0EC8081EA03051CEA1114F3
:1016B00044EAD57418BF1CEA131500F0C780A4EBE8
:1016C00005044FF0004545EAC12145EAC32341EA3C
:1016D000505143EA525304F17F74994204F50034A7
:1016E0004FEAC0204FEAC22208BF904200F09C801F
:1016F0004FEA13650FF24016765D4FEA134506FB7D
:1017000005F7C7F1807706FB07F74FEAD737A7FB46
:1017100003687642C8F58038A7FB06CE38BFA8F12B
:10172000010807FB08E64FF0000EA6FB028CE6FB63
:1017300003CEDCF1000CCEF1004E38BFAEF1010E4D
:10174000A6FB0C584FF000074FF00005E6FB0E8794
:10175000A1FB08C6A0FB07CE16EB0E0645F100055F
:10176000E1FB076515F1E04E7EBFA4F580345FEA2A
:1017700046066D4116F1800745F100054FEA17272F
:101780004FEA066647EA0567A6F1DE46B6F1805FD6
:101790004FEA15251FD9384624F0010C05EBC4711A
:1017A000BCF1FE6F01EB0C1102D8F0BCBDE800816A
:1017B00024425CBF01F5801E9EEAC47F02D4F0BCC7
:1017C000BDE80081244238D4F0BCA1F1C041BDE89D
:1017D000004100F049B94FEAD22242EA43524FEAAF
:1017E000D323A7FB02864FEAD02040EA415007FBF3
:1017F00003661EEA0E0F4FEAD12105FB026658BFB1
:10180000A6EB0056B6EB00564FEA520E4EEAC37EE8
:1018100018EB0E0E56EB530EBDD518EB02085E41C9
:101820007F1C55F10005B6E74FF480154FF0000717
:101830004FF000064FF00008ADE7F0BC4FF000009D
:1018400001F1C04101F00041BDE8008111EA0C1F27
:101850000CEA131500D00CE013EA0C1F00F02580F1
:101860004FF00000F0BC81EA030101F00041BDE847
:101870000081F0BCBDE8004181EA030100F0F4B84A
:10188000F0BCBDE8004170B500F0A0F8097EFC3E58
:1018900000F007B881EA03014FF0000001F00041B9
:1018A000704781EA030100F0DFB8F0BCBDE80041F9
:1018B0004FF0000021497047FFFDFBF9F7F5F4F206
:1018C000F0EEEDEBE9E8E6E4E3E1E0DEDDDBDAD8DB
:1018D000D7D5D4D3D1D0CFCDCCCBCAC8C7C6C5C439
:1018E000C2C1C0BFBEBDBCBBBAB9B8B7B6B5B4B350
:1018F000B2B1B0AFAEADACABAAA9A8A8A7A6A5A43B
:10190000A3A3A2A1A09F9F9E9D9C9C9B9A999998FE
:101910009797969595949393929191908F8F8E8EA1
:101920008D8C8C8B8B8A898988888787868585842E
:1019300084838382828181800000FF070000F87F1A
:101940004FEA41034FEA5353A3F58063D3F11E03DB
:10195000C8BFD3F1210C0CDD4FF0004242EAC12296
:1019600042EA505232FA03FC8CEAE17CACEBE170C3
:101970007047102BC4BF0020704703F5787CBCF182
:10198000FF3F04D06FF0004282EA2100704770B53B
:1019900000F01CF84992248000207047F2E710F014
:1019A000004248BF4042B0FA80F310FA03F10AD077
:1019B000C3F11D0303F580634FEA415002EB03526C
:1019C00002EBD12170474FF0000070470EF1020E7C
:1019D0002EF0030E5EF8046B364205D4012A43EB69
:1019E000030515F5001F12D8012841EB010C1CF569
:1019F000001F0CD80ED14FEAD17C15F5001F0CEB5F
:101A00004C0C0CF1020C08BF4CEBD37C04E04FF003
:101A1000080C01E04FEAD37C0CEB4C0526FA05F6E6
:101A200006F00706B6F1040C06D20EEB860CBDE8F4
:101A300070404CF0010C6047DFE80CF0090B02022B
:101A40004FF000414FF00000A1F5002170BD194694
:101A50001046012851EB010418BFD4F5001484BFCF
:101A6000002001F0004170BD0808A0F500114FEA08
:101A700031017047010202030405060708090A0B39
:101A80000C0D0E0F101000000000000000000102FD
:101A90000304060708090000B81A00080000002027
:101AA0004400000028010008FC1A0008440000203F
:101AB000F4060000440100080000000000000000DF
:101AC0000000000000000000000000000000000016
:101AD000000000000008001000800800000801401D
:101AE0000008014000080140000C01400100000016
:0C1AF00010000000000000000024F400C2
:04000005080000ED02
:00000001FF
